:020000022000DC
:1080000000600020198202005D8202005F8202008F
:1080100061820200638202006582020000000000AB
:108020000000000000000000000000006782020065
:1080300069820200000000006B8202006D82020073
:1080400071930200738202007D9902007782020020
:108050007982020000000000619402007D8202002B
:108060007F820200818202008382020085820200F8
:1080700087820200898202008B8202008D820200C8
:108080008F820200458602009382020095820200E0
:10809000E186020099820200A1BA02009D820200DC
:1080A0009F820200A1820200000000000000000088
:0880B000A3820200A582020078
:1080B800364937480A1A02D0072291438D46354976
:1080C80035480A1A06D00722914381F3098802220B
:1080D80082F3148831483249324A00F045F8324870
:1080E8003249334A00F040F832483349334A00F005
:1080F8003BF833483349344A00F036F833483449BA
:10810800344A00F031F834483449354A00F02CF844
:1081180034483549354A00F027F8354835490022B2
:1081280000F02DF834483549002200F028F834488A
:108138003449091A082903DB00220260043001606F
:10814800314A90471F482049884205D002680430C8
:1081580003B4904703BCF7E700208646EC460020AE
:1081680000212A4A9047FEE7884207D0521A05D0D4
:10817800037801300B700131013AF9D17047884218
:1081880002D002700130FAE770470000006000205A
:1081980000580020006000200060002040D4020049
:1081A800142C00203C2C0020A8820200A882020087
:1081B80040D0020040D40200142C0020142C0020CF
:1081C80074D0020074D0020074D0020074D002008F
:1081D80074D0020074D0020074D0020074D002007F
:1081E80040D4020068D402003C2C00203C2C002023
:1081F8003C2C00204D3700205037002050370020FD
:1082080050370020503900202B8202004D83020095
:108218000B484FF00701884385460A488047FFF717
:1082280047BF094809490A4A884207D0521A05D067
:10823800037801300B700131013AF9D17047000021
:10824800006000200DB5020060D00200002C002064
:10825800142C0020FEE7FEE7FEE7FEE7FEE7FEE758
:10826800FEE7FEE7FEE7FEE7FEE7FEE7FEE7FEE7DE
:10827800FEE7FEE7FEE7FEE7FEE7FEE7FEE7FEE7CE
:10828800FEE7FEE7FEE7FEE7FEE7FEE7FEE7FEE7BE
:10829800FEE7FEE7FEE7FEE7FEE7FEE7FEE700BFD4
:1082A800044B1A5C012393404FF0A042C2F80C35EE
:1082B800704700BF74D00200044B1A5C012393403E
:1082C8004FF0A042C2F80835704700BF74D00200D2
:1082D80008B50020FFF7F0FF0120FFF7EDFF0220AF
:1082E800FFF7EAFF0320BDE80840FFF7E5BF4FF0BE
:1082F800A0430322C3F84427C3F84827C3F84C27F0
:10830800C3F85027FFF7E4BFBFF34F8F0549064B6B
:10831800CA6802F4E0621343CB60BFF34F8F00BF1B
:10832800FDE700BF00ED00E00400FA0508B5FFF71F
:10833800EBFF4FF0A043D3F810056FEA104000F0B0
:108348000100704710B5FFF7D2FF0220FFF7A8FF22
:108358004FF0A043074AC3F8402702F079F80446D3
:1083680008B1FFF7D1FF43F20803186802F07AF862
:10837800204610BD0C00030012F0030310B511D104
:10838800094C22604C1CE400A4B22244074C226031
:10839800074A1370074A1370074A1080074A18469D
:1083A800118010BD072010BD442C0020402C002057
:1083B8003C2C00204C2C0020482C00204A2C00206B
:1083C8002DE9F3472B4D2B888B4206460C46174662
:1083D8004BD302A84FF0000800F8018D00F068FBAD
:1083E800254B264A18781178CBB2254909888B4243
:1083F80038BF0133C0B238BF5FFA83F840452ED08A
:1084080092F800801378DBB2994286BF0133DBB261
:10841800002313709DF8070000F06EFB4FF6FF7302
:10842800984524D0DFF860A0DAF800304FEAC80990
:1084380003EB090243F83870A6B19CB1114B2888A8
:108448001B68224608FB0030314603F04DFCDAF881
:1084580000304B4400209C8002B0BDE8F0874FF606
:10846800FF78D7E700209080F6E70920F4E704209A
:10847800F2E700BF482C00204C2C00203C2C0020A8
:108488004A2C0020402C0020442C0020F8B5124C27
:10849800124D264622782B789A4200D1F8BD2378CF
:1084A8000F48104A078812680F48DBB219B202EB6E
:1084B800C10E006852F83120BEF8041003FB070013
:1084C80090470A4A23781288DBB29A4286BF013362
:1084D800DBB200233370DDE74C2C00203C2C00205D
:1084E800482C0020442C0020402C00204A2C00203E
:1084F800094A537891780133DBB2994208BF0023C7
:10850800117899421FBF03705078182303FB00208D
:1085180014BF043000207047502C002073B5054666
:1085280002A8002400F8014D0E4600F0C1FA0DF132
:108538000600FFF7DDFF90B106700A4B9DF8062094
:1085480045605A709DF8070000F0D6FA24B9064B2A
:108558004FF48012C3F80021204602B070BD0424F5
:10856800F0E700BF502C002000E100E0204B21493B
:108578001A682F2300BF00BF00BF00BF00BF00BFA5
:1085880000BF00BF8A422FD000BF00BF00BF00BF9E
:1085980000BF00BF00BF00BF00BF00BF00BF00BFDB
:1085A80000BF00BF00BF00BF00BF00BF00BF00BFCB
:1085B80000BF00BF00BF00BF00BF00BF00BF00BFBB
:1085C80000BF00BF00BF00BF00BF00BF00BF00BFAB
:1085D80000BF00BF00BF00BF00BF00BF00BF00BF9B
:1085E80000BF00BF00BF00BF013BC3D1704700BF41
:1085F800382C00200024F4000C4B0D484FF40032B6
:1086080010B5C3F8802001244FF48033C0F84833F4
:10861800C0F808334460FFF7A9FF064B84600020C8
:108628001860FFF7A3FF044B187010BD00E100E0CD
:10863800001001406C2D00205D2D0020F8B51F4B67
:108648001F491B680025C1F84051C1F84451C1F8C1
:108658004851C1F84C51C1F80051C1F804514BB30D
:10866800D1F8044517490968641A24F07F442F4655
:108678001A68A24209D8A41A15441A7CDE691AB1EC
:108688001F745A6998699047AEB90F4B0F4A197809
:1086980013788B4205D10133DBB2022B08BF0023CC
:1086A800137012780A4B43F822500A4B4FF4801289
:1086B800C3F80021F8BD3346DAE700BF702D00206B
:1086C800001001406C2D0020682D0020692D00202D
:1086D800602D002000E100E02DE9F74F9C4A9D49FC
:1086E800137809789C4D994258D00133DBB2022B9C
:1086F80008BF0023137099491278994B0F6853F8F3
:1087080022003B1823F07F4300220B602B6814469D
:108718001646964613B942B12B6006E019688142A5
:108728002AD902B12B60091A196001272B688D4ECE
:10873800DFF83CA201934FF00008002C64D02046DB
:10874800E469864BD0F804E01A68AEEB020323F024
:108758007F41854B9942836800F2B5800B440360E2
:10876800002343608360C3612B6801220274002BDD
:1087780040F0B2802860E0E7401A0E44D968C3F898
:1087880000E0D3F81CC031B1BA1922F07F42DC6195
:108798005A6099601C4663460122BBE700242746BD
:1087A800C4E7531CB178DBB2994233704FF0180319
:1087B80003FB026208BF347013799068022B1BD048
:1087C800032B11D0012B1FD1017CE9B9D368436079
:1087D800136983605369C36093698361634B1B7832
:1087E800002BAED04160ACE700232C681A46002C61
:1087F80065D14BB12C6007E0D5F800B05B46D9468F
:10880800002B57D100230374327873789342C8D170
:10881800B8F1000F05D12B68019A9A4201D1002FB7
:1088280042D02B68002B72D0D3F80090504C4B4BA1
:10883800D4F8046518684F4F351A3B7825F07F4502
:1088480003359BB94FF48033C4F84433C4F8043378
:10885800494B4FF400324FF00108C3F880211A60E9
:10886800C4F80080FFF782FE87F80080A9452CBF76
:108878004844401920F07F40C4F84005D4F8043536
:108888009B1B23F07F43801B033320F07F408342F0
:108898000AD9D4F80435C4F84035FFF767FE364BDB
:1088A8004FF40032C3F80021304B00221A7003B095
:1088B800BDE8F08F98422DD09946DB69A0E7227475
:1088C8000123E46993E7A2EB0E0222F07F429A4269
:1088D80034BF9B1A002342E7026819688A420BD802
:1088E8008A1A1A60C36145E7521AD9699E4661B966
:1088F8000260C161D86120E79E4619689142F3D3AE
:10890800891A196019467346F2E70B46F5E7FFF72F
:1089180073FEC9E748450CD1DBF81C302B6043B91E
:108928000E490122CAF808200B60104B1A70FFF795
:108938001DFEC2690368C9F81C2012B111680B44F6
:1089480013602B689B4518BF4FF001085AE700BF1A
:10895800682D0020692D0020702D00206C2D00202E
:10896800602D0020502C0020FEFF7F005C2D002091
:10897800001001405D2D002000E100E008B5FFF780
:108988003BFE114B00200B2218709A7058700F4B49
:1089980018600F4B18700F4B18700F4B4FF4801264
:1089A800E021C3F8802183F814131A6002F1804291
:1089B800A2F56F22C2F8080583F81113074BD2F805
:1089C80004251A6008BD00BF502C0020702D00201F
:1089D800682D0020692D002000E100E06C2D0020AA
:1089E800074B9B784BB132B128B10368187C20B98A
:1089F80059745A617047072070470820704700BFB4
:108A0800502C00202DE9F7431E4FBB7805460E4633
:108A18009046ABB3A0B3042930D9436983B3437CF0
:108A280002A80024012B00F8014D0CBF8946A1467D
:108A380000F03EF80DF10600FFF75AFDE0B1012302
:108A48000370114B4560D3F8043583609DF80630F8
:108A5800C660C0F81090C0F814807B709DF80700BD
:108A680000F04AF824B9094B4FF48012C3F80021EA
:108A7800204603B0BDE8F0830424EFE70724F7E7B6
:108A88000824F5E7502C00200010014000E100E028
:108A9800064A92783AB130B1426922B10022027492
:108AA8000221FFF73BBD0820704700BF502C002073
:108AB80070B5EFF3108672B60C4A946801239CB91E
:108AC80093600B4B0B4DD3F8801029401160C3F80D
:108AD8008050D3F8841051604FF0FF32C3F88420DF
:108AE800047006B962B670BD0370FAE7742D0020F1
:108AF80000E100E0FC06FFBD084B9A6810B55AB1CA
:108B080050B9EFF3108272B605491C680C605C68B6
:108B18004C60986002B962B610BD00BF742D002089
:108B280000E100E030B53AB11368DB430B4C014477
:108B3800814204D1D84330BD4FF0FF33F6E710F837
:108B4800012B5340082213F0010F14BF25460025BE
:108B5800013A85EA5303F6D1EAE700BF2083B8ED6E
:108B68000B4620B11BB1036011461B6818470E2045
:108B780070472DE9F043DDF81C809646F0B1EAB164
:108B8800D0F800C0BCF1000F1BD0EBB14768D7F894
:108B98000490B3FBF9F709FB1737AFB942EA010EA6
:108BA8001EF0030F07D1C768B94204D34C1E0569EC
:108BB8001C44AC420BD91020BDE8F0830E20BDE860
:108BC800F0830820BDE8F0830920BDE8F083CDF8E4
:108BD8001C80DCF80C40A446BDE8F0436047F0B5C3
:108BE800B8B1D0F800E0BEF1000F14D0AAB14768C0
:108BF800D7F800C00CF1FF370F4208D1C768B94257
:108C080005D34C1E05690CFB0244AC4207D9102061
:108C1800F0BD0E20F0BD0820F0BD0920F0BDDEF843
:108C28001040A446BDE8F04060470000014B436097
:108C38000020704778D0020008467047002070472F
:108C4800024B1868003018BF01207047802D0020A3
:108C580008B510461A4603F047F8002008BD000082
:108C680010B50022054B53E8001F01EA020043E853
:108C7800000494F0000FF6D110BD00BF802D002035
:108C880008B5FFF7EDFF002008BD00002DE9F04111
:108C980015461F4686B080460E460122144B53E8FF
:108CA800004F44EA020143E8001090F0000FF6D1AB
:108CB800E4B9A54212D1FFF7D3FFD8F80830002451
:108CC80093B1022201A88DF804200294039604951A
:108CD80005979847204606B0BDE8F08106EB0430BA
:108CE80000F0C8FE0134E4E71846F4E71120F2E783
:108CF800802D00202DE9F0410F4686B011468046B0
:108D08001E460124124A52E8005F45EA040342E87D
:108D1800003090F0000FF6D1BDB9B208384600F027
:108D2800C1FEFFF79DFFD8F8082062B10C9B8DF8B3
:108D3800044001A802950397049605939047284696
:108D480006B0BDE8F0811046FAE71120F8E700BF49
:108D5800802D00200B684A684360934208BF0023B7
:108D6800016008BF43607047436843B10268916877
:108D780052680B449342436004BF0023436070472A
:108D88002DE9F04F0022C9B04B780C781B0443EA58
:108D98000463CC7823438C7843EA042308AC043179
:108DA800A3500432402AEFD1234638AD996B1E46B2
:108DB8004FEAF14282EA714282EA9122716A366888
:108DC80053F8044F31440A444FEAB44181EAF4119C
:108DD80081EAD4010A449D42DA63E7D1036D009326
:108DE800436D0193836D0293C36D0393036E0493E4
:108DF800436E0593836E069304A991E80250C36EEF
:108E0800DDF80C80029DDFF8AC9007939DE85000D8
:108E18009B4600274FEAF12383EAB11383EA716A7C
:108E280059F827301A4608AB53F827301A44134626
:108E380053442EEA010201EA0C0A82EA0A021A44A1
:108E48004FEA743A85EA06035A448AEAB40A06EAFB
:108E5800050B234083EA0B038AEAB45A01379A4484
:108E6800402F02EB0803F3465244A8461AD1009F4C
:108E78001744019A076522444265029A3244826582
:108E8800039A2A44C265049A1A44059B02660B4455
:108E98004366069B63448366079B7344C36649B075
:108EA800BDE8F08FE64635468C46264619461446F8
:108EB800B0E700BFA4D0020030B5E0B10F4A0265A8
:108EC8000F4A42650F4A82650F4AC2650F4A026619
:108ED8000F4A42660F4A826602F17452A2F52302D3
:108EE800002300240025A2F692420364C0E912453B
:108EF800C266184630BD0E2030BD00BF67E6096A5D
:108F080085AE67BB72F36E3C3AF54FA57F520E51A2
:108F18008C68059BABD9831FF8B50446F0B10AB934
:108F28000020F8BDD1B10D468E180027B542F7D004
:108F3800236C15F8012BE2540133402B2364F5D13F
:108F480021462046FFF71CFFD4E9120110F50070F6
:108F580041F10001C4E912012764E7E70E20F8BDDA
:108F680070B50D4616460446002800F08680002994
:108F780000F08380026C8021372A00EB02038154C1
:108F88004BD800F13802002101339A4243D1D4E989
:108F98001223206C0821E1FB002322FA01F1C4E925
:108FA800122384F83F2084F83E10110C120E84F826
:108FB8003C201A0A84F83B3084F83A201A0C1B0E1D
:108FC80084F83D1084F83920214684F8383020464A
:108FD800FFF7D6FE691E8EB30023E26EDA4001F871
:108FE800012FA26EDA400A71626EDA400A72226EAE
:108FF800DA400A73E26DDA400A74A26DDA400A7543
:10900800626DDA400A76226DDA400833202B0A773F
:10901800E3D1002070BD1970B6E7002101331A1B97
:109028003F2A09D921462046FFF7AAFE3822002107
:10903800204602F083FEAAE71970EFE71823226D95
:10904800DA4001F8012F626DDA400A71A26DDA4048
:109058000A72E26DDA400A73226EDA400A74626EAE
:10906800DA400A75A26EDA400A76E26EDA40083B08
:1090780013F1080F0A77E2D1CBE70E2070BDF0B5E7
:1090880080B379B373B300241C600A44DB26DC2761
:109098004FF0DD0E8A421C6805D1621C1A60C0239D
:1090A80003550020F0BD11F8015BC02D07D0DB2D62
:1090B8000DD0651C1D6011F8015C0555EAE7651CBB
:1090C8001D6006551C68651C1D600755E2E704F124
:1090D800010CC3F800C005551C68651C1D6000F82C
:1090E80004E0D7E70E20F0BD10B588B38368C268E6
:1090F80093422FD00278012A10D003D3022A21D01C
:10910800112010BDC02927D0DB2902D1012303700B
:10911800F6E742685C1C8460D154F1E7DC2905D08D
:10912800DD290AD0022303700B2010BD591C4268A8
:109138008160C021D1540023E9E7591C816042684D
:10914800DB21F7E7C029DBD1002303708360D7E771
:109158000E2010BD042010BD002010BD40DF704758
:1091680038B5084C04F108030546002818BF1C460A
:1091780023682BB11A6822605B6828469847F7E78E
:1091880038BD00BF8C2D002008B9FFF7E9BF704734
:1091980008B502F065FC18B1BDE80840FFF7DEBF6E
:1091A800074B01221A604FF08042D2F80C3403F0CA
:1091B8000113B3F1011FF8D0024B00225A7008BD09
:1091C80004000040842D0020064B01221A604FF055
:1091D8008042D2F8183413F48033FAD1024A9370DB
:1091E800704700BF0C000040842D002010B50E4CC5
:1091F8002378BBB96360A360E36023610B4B1868F5
:1092080010F0010002D1072100F0E4F802F028FC78
:1092180020B94FF080430122C3F818250123237099
:10922800002010BD852010BD842D002000E100E045
:1092380008B500F0C7F84FF080434FF0FF32C3F88D
:109248000823FFF7C1FFFFF7A3FF024B00221A70A4
:1092580008BD00BF842D002037B51E4CA3780546F5
:1092680003F0FF0293B110B143680120984702A8A8
:10927800002300F8043DFFF71BFCE3689DF8040099
:109288000133E360FFF738FC03B030BD02A800F8F3
:10929800052DFFF70DFC25B122691346ABB92A60ED
:1092A8002561E2685AB90C4B1A601B680193019B4F
:1092B8004FF080430222C3F8042301229A60E36836
:1092C8009DF803000133E360DCE79D42E9D01B68A9
:1092D800E4E700BF842D00200401004007B502A880
:1092E800002300F8013DFFF7E3FB074BDA68013A7A
:1092F800DA60DB680BB9FFF767FF9DF80700FFF737
:10930800FBFB03B05DF804FB842D0020012813B596
:1093180009D003D303281BD002B010BD104B012283
:10932800C3F88020F8E702A800230E4C00F8013D9E
:10933800FFF7BEFB23780BB9FFF758FFE3689DF8EA
:1093480007000133E3600123A370FFF7D5FBE3E7D0
:109358000721002000F03EF8FFF7C0FFDCE700BF60
:1093680000E100E0842D0020134B07B51A686AB1AC
:10937800002018601B6800934FF08042009B012377
:10938800C2F808330D4A5370FFF7EAFE0C4B1A680F
:1093980072B100221A601B680193019B4FF0804351
:1093A8000222C3F80823054B01209870FFF7D8FE66
:1093B80003B05DF804FB00BF00010040842D0020CD
:1093C80004010040024B0122C3F88020704700BF0F
:1093D80000E100E000284FEA4111BFBF00F00F0292
:1093E8000E4BC9B29954A8BF00F1604300F01F02A8
:1093F8004FEA5010A8BF03F561434FEA8000A8BFA9
:10940800C9B200F16040A8BF83F8001300F56140BD
:1094180001239340C0F880310360704714ED00E0E9
:1094280000F1804000F5C040002382B0036003686B
:109438000193019B02B07047800000F1A040D0F872
:10944800003723F44033C0F80037D0F8003743EA38
:109458000141C0F8001770472DE9FF4700245A4A18
:109468005A4E5B4D01940121A2F5C04052F8043BCD
:10947800012B80B206D1D6F804330B4202D0FFF795
:10948800CFFF0C43AA424FEA4101EDD1514B1B6873
:10949800012B0AD14FF4BE70FFF7C2FF4FF0A04373
:1094A80044F00044D3F81035019314F0FF0F38D17D
:1094B800002C80F2858000230293DFF81C914FF086
:1094C800FF33039301260024A0464FF0A04709EB81
:1094D800080393F95020531C61D0D2B222F0C00582
:1094E800E90804A8084402F0070310F804EC06FA97
:1094F80003F31EEA030F52D009EB050E92099EF9F9
:1095080030E059F82EA0BAF1000F26D1032A46D12F
:109518000DF1080C1CF801E04EEA030E0CF801E00E
:109528001DE02D4F01260025344210D0AB0003F179
:10953800804303F5C043D3F81005D3F8101557F846
:10954800253023B1C1F30141C0F304209847013508
:10955800082D4FEA4606E7D1AAE7032AD8D005F531
:10956800E07110F80C0C57F821101842C1F30141B2
:1095780005D0022913D1032A0BD1114604E003298F
:109588000DD1032A05D102212846FFF755FF0134E2
:10959800E4B2BAF1000F02D011462846D04708F1CC
:1095A8000108B8F1040F92D154B14FF0A043019AC9
:1095B800D3F81035934203D00193029B039382E7BB
:1095C80004B0BDE8F08700BF0061004000600040C3
:1095D800206100407C610040982D0020002343500A
:1095E80082B043580193019B02B070471FB5012315
:1095F8008DF80030054B8DF808000191684693E816
:109608000600904705B05DF804FB00BFF02D002070
:109618002DE9F041484E047905461C2000FB046002
:10962800C07E002840F0848008682B68471C0BD057
:109638004FF0A04E01278740CEF8087500F5E07777
:109648004FF0030C4EF827C0D1F804E0BEF1FF3FFD
:109658001FBF0EF5E0774FF0A04C4FF000084CF814
:1096680027808F6991F814C0C3F824754F7DBCF129
:10967800010F4CEA0707C3F86C75C3F80C05C3F86B
:1096880014E520D18F68781C1FBF07F5E0704FF0F4
:10969800A04E4FF0000C4EF820C0C868B0F1FF3F54
:1096A8000DD04FF0A04C4FF0010E0EFA00FECCF892
:1096B80008E500F5E07E4FF003084CF82E80C3F86B
:1096C8000805C3F810751C236343F0184260086945
:1096D800F050EAB10A7F28684FF48871FFF77EFFDF
:1096E8004FF490712868FFF779FF4FF4927128685A
:1096F800FFF774FF4FF4A2712868FFF76FFF28681F
:109708000E4BC0F80433114640F30730FFF762FEF2
:109718002B680822C3F800251C2303FB04630020E0
:109728000122D87518769875DA769876BDE8F081B2
:109738000820BDE8F08100BFF02D002010030200D2
:10974800F0B5036802792C4C0021C3F800151C21E0
:1097580001FB0241496879B103682849C3F8081335
:109768001B0B59B20125490903F01F0305FA03F33E
:109778002031234D45F821300368D3F80C65D3F820
:109788001455D3F80815D3F810054FF0FF37BE422B
:10979800C3F80C7518BF06F5E076C3F81475C3F85E
:1097A8000875C3F810751EBF4FF0A043022743F891
:1097B80026706E1C1FBF4FF0A04305F5E07502260A
:1097C80043F82560451C1FBF00F5E0704FF0A0432B
:1097D800022543F820504B1C1FBF4FF0A04301F552
:1097E800E071022043F821001C2303FB02430022FE
:1097F800DA765A60F0BD00BFF02D00201003020099
:1098080000E100E001F06043B3F1005F2DE9F041B1
:10981800074633D11E4B06791C2505FB06359846AD
:10982800AC7D74BBAA75A960AC824FF490710068D6
:10983800FFF7D4FE4FF4AC713868FFF7CFFE3B68F2
:10984800AA7DA968C3F84415C3F8482501229A607F
:109858006A68CAB9D3F82011D3F8582149B9002A3F
:10986800F8D00F201C2303FB06860023B375BDE840
:10987800F081002A14BF0F200020F3E71020BDE874
:10988800F0811120BDE8F0812046BDE8F08100BFDD
:10989800F02D0020F8B501F06043B3F1005F0546F4
:1098A8000F4628D10379314E1C2101FB036148681A
:1098B80020B129684FF40474C1F808431C2101FB46
:1098C8000363DC7DCCB1197E00294BD020B12B6815
:1098D8004FF40472C3F804231120F8BDD3F8002212
:1098E80042F02002C3F800221EE04FF40472C3F8CD
:1098F80004230020F8BD1020F8BDDA75DF605C761F
:109908001C764FF488712868FFF768FE4FF4A2713F
:109918002868FFF763FE2B68C3F83475C3F8382549
:10992800002CDBD101221A602A791C2101FB02617B
:1099380049680029D9D1D3F81041D3F84411D3F894
:10994800240114B909B90028F5D01C2303FB0266C9
:109958000023984214BF03201846F375994218BF94
:109968000F20F8BD1F611A760124CAE7F02D0020E8
:10997800704700007FB5394AD2F82461002E4AD0DA
:1099880010464FF49271FFF729FE02238DF800303C
:10999800D2F88034C2F880340393D2F83C358DF87D
:1099A80008302F4BDA6801920022DA751A76684679
:1099B80093E806009047294AD2F844317BB14FF426
:1099C800A2711046FFF70AFE254BD97D39B1002157
:1099D800D975D2F83C05D968C0B2FFF707FE1F4A0F
:1099E800D2F82031ABB14FF490711046FFF7F6FD75
:1099F8001B4B997D69B1D2F84C158DF808100022DF
:109A080099688DF8002001919A75684693E80600D8
:109A1800904704B070BDD2F81031002BCBD04FF472
:109A280088711046FFF7DAFD0D4BD2F83C15D87D4A
:109A3800C9B28842BFD11C7E6CB1D2F80052D96835
:109A480025F02005C2F800521A69DC75DA601E7626
:109A5800FFF7CCFDAFE7DC75D968F9E700200040D7
:109A6800F02D0020024AD2F80034002BFBD07047BA
:109A780000E001400A4908B50223C1F80435BFF3E4
:109A88006F8FBFF34F8FC1F80805FFF7EBFF002377
:109A9800C1F80435BFF36F8FBFF34F8F08BD00BF08
:109AA80000E0014070B50E4D16460122C5F80425A8
:109AB800BFF36F8FBFF34F8F0024B44207D1002349
:109AC800C5F80435BFF36F8FBFF34F8F70BD51F8E2
:109AD800243040F82430FFF7C5FF0134EDE700BF1C
:109AE80000E0014082B00190C0B20138092825D8B1
:109AF800DFE800F005181C201014181C202414237B
:109B08004B6028239DF805000B608B600C3102B078
:109B180000F01BB830234B606023F3E742234B600F
:109B28008423EFE718234B603023EBE71C234B60BB
:109B38003823E7E720234B604023E3E70023062090
:109B48004B600B608B6002B070470138062811D853
:109B5800DFE800F0041004080A0C0E0014230B6060
:109B6800002070471C23FAE72023F8E73023F6E7A4
:109B78004023F4E70620704730B50C490C4C8A6B3B
:109B880085B068465C3101F05BF99DE80F0084E818
:109B98000F00084BE360084B084900221A605A601E
:109BA8002046074A01F0E4FB05B030BDA43300208D
:109BB80058320020399C02006C2E002074D202001A
:109BC800CC30002007B50C4B1B6801931846FEF7F4
:109BD8005FFF08B1FEF7AAFB00224FF4701101984D
:109BE800FEF710FF20B103B05DF804EBFEF79EBB53
:109BF80003B05DF804FB00BF2CD3020008B5094B85
:109C08001B7873B100F0E6FDBFF34F8F0649074B91
:109C1800CA6802F4E0621343CB60BFF34F8F00BF02
:109C2800FDE708BDA430002000ED00E00400FA05BF
:109C38005B689A68054B9A4206D142688368044972
:109C48000132013B0A604B60704700BFF8D1020047
:109C58006C2E002010B50B4C227892B90A4A0B489A
:109C68000121FEF7BDFE08B1FEF760FB002240F2BD
:109C780066610748FEF7C6FE08B1FEF757FB0123E9
:109C8800237010BD68320020059C020024D3020016
:109C9800A8300020034B1B7813B1034B01221A7024
:109CA800704700BF9A300020A430002070B5002013
:109CB80000F0A8FC0546C0B9124CA36B26468BB130
:109CC800FFF75AFF70B1236A8BB9A3697BB10E4ABB
:109CD80013600D4B0D4A1868002100F0F3FE0C4B81
:109CE80001221A70002000F0B9FC284670BDF36A02
:109CF800002BFAD1B3691BB1034B726A1A60E8E70B
:109D08001D46F2E7A43300209C300020A03000203C
:109D1800C83000200B78012B2DE9F0470E46154678
:109D280001D0062B04D13279012A0AD19F490A7041
:109D38009E4A1278012A08D0022A00F08781052459
:109D480017E0022AF2D0072413E0013B052B00F2AA
:109D58006983DFE813F00600290048002300670341
:109D68007201B3680BB9032403E0B3F5807F03D90C
:109D780004242046BDE8F0878D4B1868FEF788FE5E
:109D880000248C4B8C481C702022214601F0D6FF01
:109D98008A4B1C63B2689A630124FBE0874BDA6B39
:109DA8006A601B6CAB601CE0844CB268E06BA36B10
:109DB8001118994203D96860236CAB60D3E75C3013
:109DC8007168204401F090FFB168E36B0B44E363D2
:109DD80004F140027068FEF7A5FEE36B20646B6037
:109DE800A8600124C5E7754DE96BAA6B914201D0C3
:109DF8000824BEE76F4E3378002BF2D1FFF7BCFE84
:109E080001289CD16E4B93F8A4201C46002A00F030
:109E1800098193F8AA30002B00F00883694B93E876
:109E2800060001B10AB9042010E094F83B3123B1CF
:109E380094F83C310BB10A24ACE094F8B430002B10
:109E4800F1D0D4F8B830342B0ED0062000F006FC40
:109E58000128044640F09E80002000F04DFC0028B8
:109E6800E9D10124347095E094F80131032B22D014
:109E780094F8BCE0544F002043F20C0C704501DB11
:109E88000720E3E7BCF8008057F8049FC14501D0DC
:109E98000130F3E7032BC6D8DFE803F0021B0D0DF2
:109EA80094F8AC30002BBED0A868D4F8B030834208
:109EB8000FD20520CAE794F8AC000028B3D0E868B0
:109EC800002BF2D0023B012B03D8D4F8B0309842D3
:109ED800EFD294F84831002B35D13C4B18785D7897
:109EE8003B4B40EA052001F096FE07460028A2D128
:109EF800DFF8008194F84931D8F804209A429AD1C1
:109F08003449D8F8000001F0EFFE334A334950785D
:109F1800157845EA002590782D4A45EA004507F06E
:109F28007F404346284301F0E5FD002840F07E824B
:109F38002B4D94F801312860032B3FF674AFDFE80E
:109F480003F0042C1B5B0B2080E794F81031002BE6
:109F58003FF469AFD4F814312B60224B22491868BA
:109F6800202201F0C1FE2868002856D01F4A00218F
:109F780000F0A8FD68B96FE794F80831002B3FF4AA
:109F880052AFD4F80C212A60194BC3F538339A42E2
:109F9800E3D90424FFF716FEEBE694F80231002B10
:109FA8003FF441AFD4F80431D6E700BF242C002099
:109FB80030D30200C8300020DC330020A433002056
:109FC800CC3000206C2E00208831002020D30200E5
:109FD800302C00201632002028D30200142C002038
:109FE8009C300020282C0020E7310020A0300020E1
:109FF800008002001C2C002094F80831002B3FF44C
:10A0080012AF94F80231002B3FF40DAFD4F80431AD
:10A01800D4F80C21991829600BB90324BAE7002A4F
:10A02800FBD0B1E71B78002B3FF489AE032000F08A
:10A0380015FB01280446ADD113E7A34BDA6B6A6020
:10A048001B6CAB604FF480732B60CAE6013B052B99
:10A0580000F2E881DFE813F006004100E900E400BF
:10A06800E601DE01B268002A3FF47DAEC2F30B03BD
:10A078003BB1954B95495B6D096813448B427FF45E
:10A0880072AEB2F5805F3FF673AE914B1B78002B32
:10A098003FF4AEAE8C4B8D49586D096814188C424C
:10A0A8003FF6A6AE5A645A69D96C99641865186364
:10A0B80002B91A62874A1378013303F00303137055
:10A0C800854B00221A80854B1B680121184400F03B
:10A0D800B5FA00287FF433AE5EE67B4C236D6B60E7
:10A0E800A26CAA607A4A1278002A3FF481AEB1685D
:10A0F80080293FF63DAE626D9B1A626C0B44934219
:10A108003FF631AE04F148027068734FDFF8C4813E
:10A11800DFF8E091FEF706FDA064B268236D1344F2
:10A128002365A86038886B6083187F2B31D898F82E
:10A138000030716800EBC310484401F0D5FD3A883F
:10A14800B36813443B803A88002A3FF44AAE636DF3
:10A15800206B616CD31A03448B42FFF442AE5F4B11
:10A1680098F800101E6809EBC1110023304400F074
:10A1780053FA00284DD1236B3A881344236398F887
:10A188000030013303F0030388F8003000233B80DC
:10A1980027E698F800307168C0F1800A1FFA8AFA39
:10A1A80000EBC3105246484401F09EFDB3683A885C
:10A1B80098F80010A3EB0A03B36073685344736004
:10A1C800464B206BD3F800E0524492B2002309EBCF
:10A1D800C11170443A8000F01FFA98B9236B3A888D
:10A1E8001344236398F80000B268013000F00300BC
:10A1F800002388F800003B80002AA4D0716809EB8E
:10A20800C0109AE7E36C626DA36422656A60AB6074
:10A21800E8E7E36C626DA36422656A60AB60AEE751
:10A22800294B1A6D6A609B6CBCE5274D2A6D6B6DD6
:10A23800696CD31A99427FF4DBAD0020AB6C68647B
:10A248006A65EB6400F058FA002840F0ED801F4F73
:10A258002A6D3B689A427FF49FAD214E96F81931DA
:10A26800032B2CD11F4B1D491C785B780968000C07
:10A2780044EA0324000420431B4B01F0CCFC1A4B96
:10A2880000284FF0200206F21B11186814BF0A2498
:10A29800012401F009FD18B10C2000F0DFF9044693
:10A2A800696971B101297FF4C6AD104B96F8012197
:10A2B800032A00F2A780DFE802F06F1F6F4509202C
:10A2C800EBE70B4BF2E700BFA43300209C300020E3
:10A2D800C8300020942E002098300020A0300020A4
:10A2E800CC30002020D30200282C0020C8330020C6
:10A2F800BC330020982E00204FF440521278142AC4
:10A3080089BF43F2140200211168494A88BFB1FB92
:10A31800F2F1484A126802F500500078142889BF03
:10A3280042F2140000221258414888BFB2FBF0F2F2
:10A3380091426DD1012C66D1A5229A60D6F80421EC
:10A348006A6334E04FF440521278142A89BF43F20A
:10A35800140200201068364A88BFB0FBF2F0354A74
:10A36800126802F5005E9EF800E0BEF1140F89BF86
:10A3780042F2140E002252F80E20DFF8B4E088BF33
:10A38800B2FBFEF2904203D0012901D100222A62D9
:10A39800012C38D1AC22D0E7012C34D1012ACBD002
:10A3A800022A0ED001299C6001D100222A6296F867
:10A3B80001214AB1023A012A09D8D6F8B020EA6048
:10A3C80005E0AA229A60F2E7D6F8B020AA60AA6C43
:10A3D8005A603A681A60012420220021164801F0C8
:10A3E800ADFCFC22FF21154801F0A8FC00232B63DB
:10A3F800134B144801221A7000F07EF900287FF4EC
:10A408001AADC7E50A2400229A605A601A60E3E789
:10A418000524F8E70C4B9A6CAA601B6D6B604FF42F
:10A42800805311E60224A4E40A24A2E40524B1E539
:10A4380040420F00A0300020DC3300200034002010
:10A448009A3000205D9C0200A43300200020704751
:10A4580008B5FFF7FBFF08B900F05EF808BD13DF89
:10A468007047000010B5044600F02BF978B9084B86
:10A478004FF0FF32C3F880202046C3F88021FFF751
:10A48800EEFF20B92046BDE8104000F003B810BD2B
:10A4980000E100E0F0B50346186880F308885868C2
:10A4A800FF2464B2EFF30585002D08D1EFF3148182
:10A4B800022221EA020181F31488A64600472546B4
:10A4C800064621273FBAF0B40024002500260027BD
:10A4D800F0B4F92040B20047F0BD00BF10B5FDF759
:10A4E80028FF034610B10123184610BD4FF08042E3
:10A4F800D2F81C25D2B2B12AF5D0064A946D012CA7
:10A50800F2D1906500F0F8F80028ECD0FDF70EFFC6
:10A518002346E9E7A433002013B50020019000F09A
:10A5280013F9FEF763FE08B1FDF700FF0020FEF700
:10A5380093FE4FF08042D2F81834DB03FBD5FEF7C8
:10A548001DFA08B1FDF7F2FE244A25480021FEF75E
:10A5580047FA08B1FDF7EAFE01A800F0D9F908B1F9
:10A5680001230193FFF7BAFF08B1012301934FF0CC
:10A5780080430022C3F81C25019BCBB1194A102146
:10A588000820FDF7F9FE08B1FDF7D0FE00224FF4D0
:10A5980070111548FEF736FA0446D8B900F004F9E8
:10A5A8000446B8B9FFF782FBFDF770FF20BFFBE751
:10A5B80000F052FA0028E1D000F0F4F8044648B957
:10A5C80000F04AFA30B1FEF733FE43F20803186888
:10A5D800FFF748FF204602B010BD00BF09A80200DF
:10A5E8002CD302006C3200207C330020044B1A6804
:10A5F80012B11A68013A1A60036903B11847704723
:10A608009C330020002202490248FEF7A9BA00BF85
:10A6180084D00200002C002037B5064D00932C682A
:10A62800134601340A46014603482C60FEF7A1FA96
:10A6380003B030BD9C330020002C002010B4054C22
:10A64800236801332360134610BC0A4601460248BA
:10A65800FEF7C5BA9C330020002C0020014B18706F
:10A668000B207047A0330020024B002218781A7084
:10A67800704700BFA033002018DF704730B585B0A1
:10A68800054610220C466846002101F057FBA40835
:10A69800684601950294FFF7EFFF05B030BD1FB57E
:10A6A8009208C2F3090353B9012302906846009344
:10A6B80001910392FFF7E0FF05B05DF804FB092064
:10A6C800FAE71FB510220021684601F037FB022384
:10A6D80068460093FFF7D0FF05B05DF804FB1FB58F
:10A6E8000323019092086846009302910392FFF7B2
:10A6F800C3FF05B05DF804FB38B50022054601210B
:10A708000E48FFF79BFF024608B1032038BD0C4CEA
:10A718005821201DFEF706FA4FF4B2722060214638
:10A72800084801F0E1FA2B464FF4B2720549034894
:10A73800FFF772FF0028E8D138BD00BF00F0020023
:10A74800A43300200835002010B5FFF75BFF08B1DF
:10A75800FDF7ECFD114C12494FF4B272204601F09E
:10A76800C3FA236801330FD14FF4B27200210B48AA
:10A7780001F0E4FA012300206360FFF7BDFF60B138
:10A78800BDE81040FDF7D2BD00225821201DFEF77C
:10A79800C9F923688342E7D110BD10BDA433002056
:10A7A80000F002000020704770B5084E084CA41B4A
:10A7B800E4080025A54201D1002070BD56F83530C7
:10A7C80098470028F9D10135F4E700BF40D00200CE
:10A7D80048D0020070B5084E084CA41BE4080025B8
:10A7E800A54201D1002070BD06EBC5035B68984700
:10A7F8000028F8D10135F3E740D0020048D0020024
:10A80800BFF34F8F0549064BCA6802F4E062134351
:10A81800CB60BFF34F8F00BFFDE700BF00ED00E046
:10A828000400FA0508B50C22002101F087FA034B51
:10A8380000221A635A631A615A6108BDA4330020C2
:10A848002DE9F8431F4F204A7B6B3E6B03F6FF75DB
:10A85800AD1B1540AC0804F6FF74144006EB000865
:10A868000BB19E422BD02EB306F58056DFF85890D8
:10A87800A5423CBF05F6FF7404EA09042246414696
:10A888003046FFF70CFFD8B9224641463046FFF75D
:10A8980026FFA8B9A5427B6B34BF05462D1B5B1B61
:10A8A80000202644A0443B63FFF726FF002DDFD19C
:10A8B800BDE8F883C7F848804FF48056D6E70020F3
:10A8C800BDE8F883A433002000F0FFFF0D4B70B5FE
:10A8D8005B6B0C68E41A05460E46224601460A4898
:10A8E800FFF7FDFE38B93046FFF79CFF0748BDE883
:10A8F8007040FFF701BF21462846BDE87040FFF7CA
:10A90800BDBE00BFA43300200080020091AA02004F
:10A918002DE9F84343F208034C4D1E682B69012BBF
:10A92800804613D06B698BB1AC6904F6FF7424F4CC
:10A938007F6424F00F04344405F12407BB68A52B79
:10A9480068D007D8012B19D0002375E0344605F1EB
:10A958001807F3E7AA2B72D0AC2BF5D1AB6C002B00
:10A9680018BF1C462046FFF76BFF0346002860D13E
:10A97800686B39462044FFF7A9FF59E06B69012B42
:10A98800E2D12B6BD5F824901E44A9EB03081C4494
:10A99800B8F5805F4FF000024FF00101304647469E
:10A9A80028BF4FF48057FFF749FE0346002843D1DC
:10A9B8003A4621463046FFF72FFE034600283BD192
:10A9C8003A4621463046FFF78AFE0346002833D12F
:10A9D8002B6B3B442B63FFF78FFEB8EB07083E4415
:10A9E8003C44D5D143F20803424649461868FEF76D
:10A9F80099F8AB6A984204BF0123E861144804BF80
:10AA08002B62C5F81890FFF70DFF0020BDE8F8434A
:10AA1800FFF772BEA86C002808BF2046FFF710FF9A
:10AA2800034630B93846FFF7FDFE0A48FFF764FED3
:10AA380003460122C8F800201846BDE8F8833946C5
:10AA48002046BDE8F843FFF741BF00BFA43300200C
:10AA5800C833002091AA020010B50A4C206A0128C8
:10AA68000DD1E36963B143F208030022A1691868B4
:10AA7800FEF758F8E3691B1A5842584110BD0020E8
:10AA880010BD00BFA433002008B5FFF7E5FF90B163
:10AA9800094A0A480021FDF7A3FF08B1FDF746FC63
:10AAA80000224FF4A0210648FDF7ACFF18B1BDE81D
:10AAB8000840FDF73BBC08BD09A8020030D30200DE
:10AAC8006C36002070B50546002A35D01B4843F285
:10AAD800080304681B68A4F54054E41AAC4201D288
:10AAE800042070BD16481360066A012E20D18369C0
:10AAF80003F6FF7323F47F6323F00F03E41AA542E0
:10AB080006D90029ECD10661416100F1180407E07B
:10AB180000210161466111680B44136000F12404AF
:10AB28000C220021204601F009F92560002070BDA3
:10AB3800002303614361E8E7072070BD141000108B
:10AB4800A43300200023C2600160416083608B78D9
:10AB58001A44026191F903301A44426108780030BE
:10AB680018BF0120704738B542681178034600299C
:10AB780038D002F10C014160147B2CB9C26801681D
:10AB8800FFF7E0FF204638BD5078117900F0300516
:10AB9800302D14D1547B04F03004302C0FD1907830
:10ABA8001969091A19610021907B0844196901443F
:10ABB800196192F90F2011445961012038BD00F044
:10ABC800F004202C08D1507910FB01F1002DEBD1B5
:10ABD800986801309860E7E700F0C000802808BF57
:10ABE8000421F3E7084638BD70B5456804460E46AB
:10ABF80063681A78B24204D15B7803F00F03082B1C
:10AC080007D12046FFF7AFFF63689D42F0D10020CF
:10AC180070BD012070BD43681A44426011B101390A
:10AC2800934201D10120704713F8010B01F8010F7D
:10AC3800F6E770B54268537803F00F04082C86B025
:10AC48001FD103691C6800260CB906B070BD2368C3
:10AC580062689D68267329466846FFF773FF636834
:10AC6800049304F10C0305936B7803F0C003802B65
:10AC780008BF231D684608BF0493FFF7DAFFA468DE
:10AC8800E2E713F0C0011BD103F03005102D08D105
:10AC980043691970072C09D10169906800F01AF806
:10ACA800D3E79D06F6D543691970CEE79168006928
:10ACB800127911B101F018F8C7E701F03FF8C4E7BD
:10ACC8008029C2D1016900229B060A60BDD543696B
:10ACD8001A70BAE77FB50A4601466846FFF732FFA1
:10ACE80030B16846FFF7A5FF6846FFF73CFFF7E776
:10ACF80007B05DF804FB83682DE9F34104468846F4
:10AD080023B90027384602B0BDE8F0810368012264
:10AD18000DF10701984707460028F2D0A3689DF86F
:10AD28000750013B2A06A3601AD505F07F050726C0
:10AD3800A368002BE5D0236801220DF10701204606
:10AD480098470028DDD0A3689DF80720013BA36041
:10AD580002F07F03B3401D43130606F1070602D431
:10AD6800C8F80050CEE7232EE2D1CAE730B5044632
:10AD780085B01546A9B90268114B9A4211D0102D19
:10AD880006D82A4669462046FFF7F0FF05B030BDD1
:10AD9800102269462046FFF7E9FF0028F6D0103D4B
:10ADA800EDE7A3689D4201D90020EFE723682A4612
:10ADB800204698470028F7D0A3685D1BA560E5E703
:10ADC8001FAC020073B50D4601A906461446FFF7ED
:10ADD80092FF88B1019A511C10D26B7803F0C0031E
:10ADE800802B0BD02B79994208D821463046FFF7A3
:10ADF800BDFF019B0022E25402B070BD0020FBE7BA
:10AE080073B50D4601A906461446FFF774FF90B1C5
:10AE1800019AFF2A11D8511C0FD26B7803F0C00396
:10AE2800802B0AD02B79994207D82146304601F861
:10AE3800012BFFF79BFF02B070BD0020FBE700006D
:10AE480010B58260024C046000224160C26010BDEF
:10AE58001FAC02002DE9F34704460F464FF00008E7
:10AE68004FF000090025A36803B3236801220DF100
:10AE78000701204698470646C0B1A3689DF807A079
:10AE8800013B2A46A3600AF07F00002100F0F8FE8B
:10AE98001AF0800F48EA000849EA010905F1070598
:10AEA80002D1C7E9008902E0462DDCD100263046F0
:10AEB80002B0BDE8F08737B50D4669461446FFF77E
:10AEC800C9FF68B12B79082B0CD1DDE90001C4E971
:10AED8000001DDE900238B4206BF824201200020E9
:10AEE80003B030BD042B04D1DDE90001206000214E
:10AEF800EFE7022B03D10098208080B2F7E7012BFF
:10AF080005D1DDE90001207000F0FF00EFE7002027
:10AF1800E6E737B50D4669461446FFF79BFF30B1A3
:10AF28002A79082A05D1DDE90023C4E9002303B002
:10AF380030BD009B042A18464FEAE37108D123600C
:10AF48001A460B468B4206BF824201200020EEE7DC
:10AF5800022A04D11BB223801AB2D317F2E7012ABE
:10AF680003D15BB223705AB2F7E70020DFE7F7B5E9
:10AF78000C46002119702170116001A90746154679
:10AF88001E46FFF7B8FE30B9BB6813B9012333700A
:10AF9800002003B0F0BD01990029F7D0CB0801F0DB
:10AFA80007012B602170F4E713B5044605291FD863
:10AFB800DFE801F0030F151E1E1C012201A920461F
:10AFC800FFF7D4FE18B19DF90430002BF5DB02B071
:10AFD80010BD082200212046FFF7C8FEF7E701A9A7
:10AFE800FFF789FE0028F2D0019AF3E70422F1E77F
:10AFF8000020ECE773B50D4601A90446FFF77BFE78
:10B00800064618B90026304602B070BD94E80F0015
:10B0180085E80F0001998A42F4D3A960A3685B1AF6
:10B02800A360F0E72DE9F04355686B7813F0C00C86
:10B0380089B006468E46144604D0BCF1400F68D04D
:10B04800002544E003F00F025C4903F03003102BA5
:10B0580051F822701DD006D8002BF1D1226929465B
:10B06800B847054633E0202B17D0302BE8D1636969
:10B0780029781970072A0AD1636820691A79614604
:10B0880000F05CFE636821699868FFF723FE226977
:10B098003CE0636901221A70E0E7BEF1020FD4F8C0
:10B0A800148027D1042A25D804A9FFF7A3FF054651
:10B0B8000028C5D0069B2BB1616898F800304A7902
:10B0C8009A4208D8059B7360069B002BB8D1284686
:10B0D80009B0BDE8F0830879226900FB032204A8BF
:10B0E800B84728B198F80030013388F80030E1E714
:10B0F8000546E7E798F800306A799A42A0D92269AC
:10B108002979581C88F8000001FB03226168304641
:10B11800A6E717693B6807F1040913B9FFF744FF6D
:10B128009FE7022913D104A9FFF764FF002887D0FD
:10B138003B6861684A4604A89847054600283FF4DA
:10B148007FAF069B002BF3D1059B7360BFE70129F6
:10B158002AD009D305297FF473AF04220DEB02012D
:10B16800FFF704FE042524E000250DF1040801354D
:10B178000B2D3FF465AF012241463046FFF7F6FD3F
:10B1880000283FF45DAF18F9013B002BEFDB0C4BB7
:10B19800049301AB05930023069507933B68616808
:10B1A8004A4604A898475CE7082201A9FFF7DEFD94
:10B1B800082500283FF444AFE9E700BF34D3020074
:10B1C8001FAC02002DE9F04F91B00026044604A8F8
:10B1D80002960396FFF7B6FCA3683BBB059B069C4B
:10B1E8005D7804A8FFF7BFFC0028F7D115F0300FF1
:10B1F80003D1059B1B7803B10134002C00F0B48007
:10B208006209002302A9934240F0A78010AA02EB2A
:10B21800830304F01F04C4F120044FF0FF3053F8F7
:10B22800383CE040C31A584258410EE00DF1030380
:10B2380001AA0DF102012046FFF799FE814638B9AF
:10B248009DF80330002BC9D1002011B0BDE8F08F64
:10B25800019904A8FFF7C8FC00285AD1019B9E4217
:10B268001DD8059D059A537803F00F03082B7DD050
:10B2780004A8FFF778FC059B9D42F3D14FF0FF36F9
:10B28800019FBE420BD8089BD4F808809DF802A005
:10B298001D68A3680DB1984509D098459CD19DF8C3
:10B2A80002102046FFF780FE002895D1CCE72B68D6
:10B2B800D3F800B0BBF1000F08D053463A462946F0
:10B2C8002046D8470028BFD0AD68E2E7D3F808B0D9
:10B2D8009BF800309F421AD16A6859460AA8FFF7BE
:10B2E80031FC6B680E9305F10C030F939BF801304A
:10B2F80003F0C003802B04BF2B1D0E934FF00103F6
:10B308002B730AAA51462046FFF78CFEDAE7484617
:10B31800D8E7059B5B7813F0300F0FD1069A3F2AC8
:10B328000CD8510910AB03EB810102F01F02012375
:10B33800934051F8382C134341F8383CE5682DB157
:10B3480004AB9DF8022001992046A84704AA9DF85D
:10B3580002102046FFF766FEA6E751F82350013594
:10B368007FF473AF01334EE701206EE7167887E765
:10B3780070B50C460646154611462046FFF7AAFC4E
:10B388002A4621463046BDE87040FFF71BBFF0B59E
:10B3980085B00C468D68694607461646FFF72AFEB3
:10B3A80068B1A06858B1637803F03003202B3246A7
:10B3B8002946684605D1FFF7DBFF019B7B6005B096
:10B3C800F0BDFFF7FFFEF8E7D3B50C466946FFF777
:10B3D80041FD70B1DDE90023002702F001065B089A
:10B3E8004FEA320256EA07011CBFD243DB43C4E9E5
:10B3F800002302B0D0BD37B50D4669461446FFF7A5
:10B40800E3FF68B12B79082B0CD1DDE90001C4E911
:10B418000001DDE900238B4206BF824201200020A3
:10B4280003B030BD042B03D100982060C117F0E7AA
:10B43800022B04D1BDF90000208000B2F6E7012BF1
:10B4480004D19DF90000207040B2EFE70020E7E743
:10B4580013B504220C460DEB0201FFF787FC08B177
:10B46800019B236002B010BD1146FFF7F1BF13B571
:10B4780008220C466946FFF779FC18B1DDE900237C
:10B48800C4E9002302B010BD1146FFF7F0BF000069
:10B49800094B1B78062B0CD1084B1B681A0708D1DF
:10B4A800074B186800F0F000A0F1300358425841EB
:10B4B80070470020704700BFE00F00F0E40F00F075
:10B4C800E80F00F00C4B1B78062B10D10B4B1B68B8
:10B4D8001A070CD10A4B186800F0F003302B08D07B
:10B4E80000F0E000A0F140035842584170470020A6
:10B4F80070470120704700BFE00F00F0E40F00F034
:10B50800E80F00F008B5FFF7DDFF28B1684B694A7E
:10B518001B68C3F304231360FFF7BAFF10B1664B2F
:10B52800664A1A60664B674A1B68C3F34233136066
:10B53800FFF7AEFF20B1644AD36823F08073D3606D
:10B548004FF080430022C3F80C21C3F81021C3F840
:10B558003825FFF79DFF10B15C4B03221A60FFF7F7
:10B5680097FF40B15A4B05221A6001229A670022C0
:10B578009A603F225A604FF08052564BD2F804141A
:10B58800C3F82015D2F80814C3F82415D2F80C14FF
:10B59800C3F82815D2F81014C3F82C15D2F81414CF
:10B5A800C3F83015D2F81814C3F83415D2F81C149F
:10B5B800C3F84015D2F82014C3F84415D2F824145F
:10B5C800C3F84815D2F82814C3F84C15D2F82C142F
:10B5D800C3F85015D2F83014C3F85415D2F83414FF
:10B5E800C3F86015D2F83814C3F86415D2F83C14BF
:10B5F800C3F86815D2F84014C3F86C15D2F844247F
:10B60800C3F8702503F54053FB22C3F81825FFF74C
:10B6180059FF28B1304B314A1B6803F04F031360C0
:10B628004FF08043D3F80024D20744BF6FF00102E3
:10B63800C3F800244FF01023D3F80022002A03DBBC
:10B64800D3F80432002B2FDA254B0122C3F8042546
:10B65800D3F80024002AFBD04FF010221521C2F89D
:10B668000012D3F80024002AFBD04FF01023152233
:10B67800C3F804221A4B1A46D3F800140029FBD049
:10B688000021C3F80415D2F80034002BFBD0BFF317
:10B698004F8F1449144BCA6802F4E0621343CB601D
:10B6A800BFF34F8F00BFFDE7104B114A1A6008BD6A
:10B6B800240300104035014074C007400DF0ADBAB6
:10B6C800440200103C050040F0ED00E0A0050040F9
:10B6D8001056004000C0004058020010E40E004020
:10B6E80000E0014000ED00E00400FA05382C0020DD
:10B6F8000090D00308B50248FEF722F8002008BDE4
:10B70800AC3600204FF0A0430322F0B5C3F844271D
:10B71800204CC3F848274FF40032C3F80C254FF4E7
:10B728008022C3F808251C4E04F11903E360812325
:10B7380063610FCE8BB002AD0FC596E80F0085E8A8
:10B748000F000623029307230493052300270822EA
:10B7580005936946114B0392012520460093276102
:10B7680027728DF81C5006948DF8047000F0BCFA0E
:10B778000B4A02A92046FDF74BFF40B92046FEF7C9
:10B78800F7F82A4604F118012046FEF783F80BB0B3
:10B79800F0BD00BFAC36002058D3020000200040A6
:10B7A800B9B8020070B50C4686B00E2205460021D5
:10B7B80002A800F0C3FA62788DF80A2060230026F8
:10B7C8008DF80830012A237801968DF8093061D167
:10B7D800033B062B68D8DFE803F00467672A506745
:10B7E800580063688DF80B301A0A8DF80C201A0C73
:10B7F8001B0E8DF80E30A3688DF80D201A0A8DF8EF
:10B808000F308DF810201A0C1B0E8DF811208DF8B2
:10B8180012300B2201AB02A92448FDF730FC9DF839
:10B82800042022492846FDF7EDFF06B070BD636885
:10B838008DF80B301A0A8DF80C201A0C1B0E8DF897
:10B848000E30A3688DF80D201A0A8DF80F308DF888
:10B8580010201A0C1B0E8DF81230E3688DF8112099
:10B868001A0A8DF813308DF814201A0C1B0E8DF857
:10B8780015208DF816300F22CCE7A3888DF80B30F1
:10B888001B0A8DF80C300522C4E723798DF80B309C
:10B898000422BFE70B2A07D1FEF7E6FE8DF80B005E
:10B8A8003046FEF7DBFEF3E70322B3E78C360020D1
:10B8B80030B50378012B8BB00C4608D004D3022B8B
:10B8C80000F0C8800BB030BDFEF7E4F9FAE7436832
:10B8D80004F108001978FDF707FC0546002840F038
:10B8E800B2800146039004900590102206A800F04B
:10B8F80025FA0C222946684600F020FA4FF0A041AC
:10B90800627E23698DF818204FF48020C1F80C0559
:10B918004FF40030013BC1F80805511E9BB20829BD
:10B9280000F28880DFE801F005232F3E8640555C51
:10B938007E00052B07D003238DF8193006A9204671
:10B94800FFF730FF7CE0B4F89A30A4F89C30A37E6F
:10B958000193D4F81B300293012303AA69460020FF
:10B968008DF80030FEF7D6F98DF81900E6E7022BBE
:10B97800E1D1E27EA37E43EA0223A4F89A30A4F838
:10B988009C300123D8E7042303AA694600208DF8D8
:10B998000030FEF7BFF9049B0793059B8DF819004B
:10B9A8000893CBE70323D8E7012BC4D1A37E0193E7
:10B9B80003AA0623694600208DF80030FEF7AAF98D
:10B9C800039B0793049B0893059B8DF81900099323
:10B9D800B4E701238DF819308123ADF81C30ADE7A9
:10B9E80002228DF8002004F11A020192694603AA86
:10B9F80000200293FEF78EF9B4F89A208DF819000A
:10BA0800F2B1B4F89C30013B9BB2A4F89C30BBB9AE
:10BA180003238DF81830049B0793059B0893A4F81B
:10BA28009C208BE7012B86D18DF81930A37E8DF8E9
:10BA38001C3083E70223082A8DF819307FF47EAF83
:10BA480000232361237205490122A1F11800FDF7A3
:10BA580021FF37E7C068FCF769FC33E7C4360020EC
:10BA6800014B1878704700BF4C37002007B50849CC
:10BA78006846FDF76FF9019B13B903B05DF804FB45
:10BA880058681A6890476846FDF76EF9F3E700BFF3
:10BA980078D30200FFF7EABF002108B5044A084638
:10BAA800FCF78EFC18B1BDE80840FCF73FBC08BDA8
:10BAB8009DBA020048DF70471FB50D4C01A8FFF77B
:10BAC800F9FF70B9214602A8FDF744F9039B002B42
:10BAD800F4D001981A685968904702A8FDF744F90C
:10BAE800F4E7052801D0FCF721FC04B010BD00BF25
:10BAF80084D302002DE9F04188B00D460390164624
:10BB08001F4601F02BF98046002D32D0002E30D090
:10BB1800002F2ED02B6873B3316861B33A6852B3E3
:10BB28000B43990727D1930725D104A90398FDF75B
:10BB3800D9FF0446C8B96A68049B9A421DD1726845
:10BB4800079B9A4219D17968069B994215D19DF8AD
:10BB58000C30042B13D1CDF800803B68316828687D
:10BB680001F000F9002808BF0B24204608B0BDE802
:10BB7800F0810E24F9E71024F7E70924F5E70624F5
:10BB8800F3E782B0ADF8040059B1086860B14B68BA
:10BB98006F2B0BD99DF80430052B09D102B0FDF7A6
:10BBA8008BB90E2002B070471020FBE70920F9E797
:10BBB8000620F7E730B129B143686F2B04D9006834
:10BBC800FDF7AAB9072070470920704730B585B03E
:10BBD8001446ADF80400E1B1DAB14B68702B02D01D
:10BBE800092005B030BD0D689DF8040003A9FDF7D4
:10BBF800ACFF0028F5D16268039B9A42F0D19DF80A
:10BC080005202168B2FA82F252092846FDF7A8F900
:10BC1800E7E70720E5E770B5A2B0164606AA049242
:10BC28007022ADF804000D46C0B205921C46F3B16F
:10BC3800E9B11B68EBB105281DD103A9FDF785FF04
:10BC480098B96268039B9A4217D104A90198FFF733
:10BC580098FF50B93246294604A8FFF7ABFF20B930
:10BC6800224604A90198FFF7B1FF22B070BD0E204B
:10BC7800FBE71020F9E70620F7E70920F5E70000C1
:10BC8800B2F120030AD5C2F1200301FA02F120FA29
:10BC980003F341EA030100FA02F0704700FA03F1E6
:10BCA8004FF00000704700BFE2B170B4561E15D0C7
:10BCB80002780B789A4213D1431C01310644184686
:10BCC8000A46B34205D00133013105781478A542FC
:10BCD800F5D000781378C01A70BC70470A46F8E7A8
:10BCE8000A46F6E700207047844640EA010313F04D
:10BCF800030F18D18446202A0BD32DE9F007B1E8A9
:10BD0800F807A0E8F807A2F12002202AF7D2BDE838
:10BD1800F007042A07D351F8043B40F8043BA2F18A
:10BD28000402042AF7D2002A05D011F8013B00F8D2
:10BD3800013B013AF9D16046704700BF8446002AAA
:10BD48002DD010F0030F04D000F8011B013A26D0C3
:10BD5800F7E7C9B241EA012141EA0141202A12D399
:10BD6800A2F120022DE9F0030B460C460D460E46C3
:10BD78000F4688468946A0E8FA03203AFBD2BDE878
:10BD8800F00320320BD0042A05D340F8041B043AF0
:10BD980005D0042AF9D200F8011B013AFBD160460C
:10BDA800704700BF1AB1013A8B5C8354FAE77047B9
:10BDB80010B5013AD2B253B2002B09DB1BB250F8CE
:10BDC800234051F823309C4204D8F2D2FF2002E0ED
:10BDD800002000E0012040B210BD0000000000007B
:10BDE8000000000000000000C3F10803DB0070B58C
:10BDF80001330446002003A55B1920C940CAAD19C8
:10BE080020C4184720C940CA754120C420C940CA67
:10BE1800754120C420C940CA754120C420C940CA00
:10BE2800754120C420C940CA754120C420C940CAF0
:10BE3800754120C420C940CA754120C4404170BD25
:10BE48000000000000000000C3F10803DB0070B52B
:10BE58000133002403A500BF5B1920C940CAAD1BEC
:10BE680020C0184720C940CAB54120C020C940CACF
:10BE7800B54120C020C940CAB54120C020C940CA28
:10BE8800B54120C020C940CAB54120C020C940CA18
:10BE9800B54120C020C940CAB54120C06441B4FAA8
:10BEA80084F0400970BD00BF2DE9F04F08B4F8CA0E
:10BEB80004B451F8042BA3FB028940F8048B4FF01B
:10BEC800000AE4FB629A4FF0000BE5FB62AB4FF00F
:10BED800000CE6FB62BC4FF0000EE7FB62CE51F8A7
:10BEE800042B4FF00008E3FB628940F8048BE4FB65
:10BEF800629AE5FB62ABE6FB62BCE7FB62CE51F8F7
:10BF0800042B4FF00008E3FB628940F8048BE4FB44
:10BF1800629AE5FB62ABE6FB62BCE7FB62CE51F8D6
:10BF2800042B4FF00008E3FB628940F8048BE4FB24
:10BF3800629AE5FB62ABE6FB62BCE7FB62CE51F8B6
:10BF4800042B4FF00008E3FB628940F8048BE4FB04
:10BF5800629AE5FB62ABE6FB62BCE7FB62CE40F8A7
:10BF6800049B40F804AB40F804BB40F804CB40F80D
:10BF780004EB0CBC052B00F01E810C68A0F114002A
:10BF8800A1F11401A2F1140252F804EB4FF00005DC
:10BF980050F8046BE4FB6E5652F804EB50F8047B3F
:10BFA800E4FB6E6752F804EB50F8048BE4FB6E7800
:10BFB80052F804EB50F8049BE4FB6E8952F804EB4A
:10BFC80050F804ABE4FB6E9AA0F1140052F8044B4D
:10BFD80051F804EB4FF0000CE4FB6EC540F804CBBD
:10BFE80051F804EBE4FB6E5640F8045B51F804EB9F
:10BFF800E4FB6E6740F8046B51F804EBE4FB6E78E1
:10C0080040F8047B51F804EBE4FB6E8940F8048B9C
:10C0180051F804EBE4FB6E9AA0E80006062B00F04A
:10C02800CA800C68A0F11800A1F11801A2F1180249
:10C0380052F804EB4FF0000550F8046BE4FB6E5621
:10C0480052F804EB50F8047BE4FB6E6752F804EBFB
:10C0580050F8048BE4FB6E7852F804EB50F8049B1C
:10C06800E4FB6E8952F804EB50F804ABE4FB6E9ADB
:10C0780052F804EB50F804BBE4FB6EABA0F11800D7
:10C0880052F8044B51F804EB4FF0000CE4FB6EC57A
:10C0980040F804CB51F804EBE4FB6E5640F8045B1F
:10C0A80051F804EBE4FB6E6740F8046B51F804EBBD
:10C0B800E4FB6E7840F8047B51F804EBE4FB6E89EE
:10C0C80040F8048B51F804EBE4FB6E9A40F8049BAB
:10C0D80051F804EBE4FB6EABA0E8000C072B6AD028
:10C0E80008B40C68A0F11C00A1F11C01A2F11C020B
:10C0F80052F804EB4FF0000550F8046BE4FB6E5661
:10C1080052F804EB50F8047BE4FB6E6752F804EB3A
:10C1180050F8048BE4FB6E7852F804EB50F8049B5B
:10C12800E4FB6E8952F804EB50F804ABE4FB6E9A1A
:10C1380052F804EB50F804BBE4FB6EAB52F804EB86
:10C1480050F804CBE4FB6EBCA0F11C0052F8044B81
:10C1580051F804EB4FF00003E4FB6E3540F8043B64
:10C1680051F804EBE4FB6E5640F8045B51F804EB1D
:10C17800E4FB6E6740F8046B51F804EBE4FB6E785F
:10C1880040F8047B51F804EBE4FB6E8940F8048B1B
:10C1980051F804EBE4FB6E9A40F8049B51F804EB69
:10C1A800E4FB6EAB40F804AB51F804EBE4FB6EBC67
:10C1B800A0E8001808BCBDE8F08F2DE9F04FB1E801
:10C1C800005E06B4AAFB09124FF00003EBFB6923DB
:10C1D8004FF00004ECFB69344FF00005EEFB6945B5
:10C1E8004FF00006EBFB6A63ECFB6A3449185241D6
:10C1F80076415B41A9FB09784FF0000949F1000934
:10C2080018EB0108A0E88001AAFB0A78574158EB0F
:10C218000608A0E88001EEFB6A454FF0000A4AF1E3
:10C22800000A4FF00001ECFB6B14EEFB6B454FF07E
:10C238000002EEFB6C255FEA59094941644152410D
:10C248006D4149F10009EBFB6B3A1AEB010AA0E8D2
:10C258000804ACFB0C6A66415AEB020AA0E84004E9
:10C26800AEFB0E6A6E415AEB090AA0E8400406BC10
:10C27800052A00F0E680A0F11400A1F11401B1E84C
:10C28800E043A5FB0E344FF00005E6FB6E454FF08A
:10C298000006E7FB6E564FF00007E8FB6E674FF0AD
:10C2A8000008E9FB6E784FF00009DB1864416D4126
:10C2B80076417F4158EB080859F1000950F804CB42
:10C2C80013EB0C0350F804CB54EB0C0450F804CBDC
:10C2D80055EB0C0550F804CB56EB0C0650F804CB84
:10C2E80057EB0C0758F1000859F10009A0F11400A8
:10C2F800EEFB0E89A0E8F803062A00F0A280A0F160
:10C308001800A1F11801B1E8E047A5FB0E344FF081
:10C318000005E6FB6E454FF00006E7FB6E564FF052
:10C328000007E8FB6E674FF00008E9FB6E784FF0F6
:10C338000009EAFB6E894FF0000ADB1864416D4181
:10C3480076417F4158EB080859EB09095AF1000A70
:10C3580050F804CB13EB0C0350F804CB54EB0C044B
:10C3680050F804CB55EB0C0550F804CB56EB0C06F3
:10C3780050F804CB57EB0C0750F804CB58EB0C08DB
:10C3880059F100095AF1000AA0F11800EEFB0E9AC3
:10C39800A0E8F807072A54D0A0F11C00A1F11C015D
:10C3A800B1E8E04FA5FB0E344FF00005E6FB6E4503
:10C3B8004FF00006E7FB6E564FF00007E8FB6E678C
:10C3C8004FF00008E9FB6E784FF00009EAFB6E8930
:10C3D8004FF0000AEBFB6E9A4FF0000BDB1864413C
:10C3E8006D4176417F4158EB080859EB09095AEB32
:10C3F8000A0A5BF1000B50F804CB13EB0C0350F85E
:10C4080004CB54EB0C0450F804CB55EB0C0550F856
:10C4180004CB56EB0C0650F804CB57EB0C0750F83E
:10C4280004CB58EB0C0850F804CB59EB0C095AF123
:10C43800000A5BF1000BA0F11C00EEFB0EABA0E8BC
:10C44800F80FBDE8F08F10B5002253B28B4205DA21
:10C458001BB2002440F823400132F6E710BD2DE955
:10C46800F0478846B3F902101F460825CB1D202443
:10C4780093FBF5F51F31954291FBF4F44FFA84F9DB
:10C4880028BF154606464946FFF7DDFF2A463046CF
:10C498004146FFF787FCB7F90230ED009D4220D9ED
:10C4A800ED1A06EB840100228E420AD251F8040DDF
:10C4B80020FA05F313430B60C5F1200300FA03F2D9
:10C4C800F2E72437384631464A46FFF771FC01281F
:10C4D80007D0304631463A464B46BDE8F047FFF7AD
:10C4E800B3BCBDE8F08710B500231A465CB28C4295
:10C4F80004DA50F8244001332243F7E7B2FA82F015
:10C50800400910BD4A11012301F01F0150F8220013
:10C518008B40184070470139C9B24BB2002B0BDA77
:10C52800013111F0FF0315D059B201F18043013BED
:10C5380050F82320002304E050F82330002BEAD0E1
:10C54800EEE712B152080133FBE7481E03EB401037
:10C5580080B200E0184600B2704730B5002463B2DC
:10C56800934206DA1BB2013451F8235040F82350A5
:10C57800F5E730BDF0B50C4689B008220646FFF74E
:10C58800ECFFE36A0393236B0493636B0593A36B3C
:10C598000693E36B0793002769466A4608236846B3
:10C5A800029701970097FFF71FFC314605466A4638
:10C5B80008233046FFF718FC236B0393636B04933F
:10C5C800A36B0593E36B0693054469466A46082303
:10C5D80068460797FFF708FC314605446A46082372
:10C5E8003046FFF701FC236A0093636A0193A36A4C
:10C5F8000293A36B0693E36B0793054431466A469F
:10C6080008233046059704970397FFF7EDFB636A05
:10C618000093A36A0193E36AA26B0293636B03938B
:10C6280004920693E26B236A059205440793314608
:10C638006A4608233046FFF7D7FBE36A0093236B6B
:10C648000193636B0293236A0693A36A07930544D5
:10C6580031466A4608233046059704970397FFF743
:10C66800F3FB236B0093636B0193A36B0293E36B60
:10C678000393636A0693E36A07932D1A31466A4661
:10C688000823304605970497FFF7DEFB636B00939A
:10C69800A36B0193E36B0293236A0393636A049386
:10C6A800A36A0593236B07932D1A31466A4608231C
:10C6B80030460697FFF7C8FBA36B0093E36B019323
:10C6C800636A0393A36A0493E36A0593636B07930E
:10C6D8002D1A314630466A46082302970697FFF717
:10C6E800B3FB2D1A16D5304631460D4A0823FFF7FD
:10C6F8007BFB4519F7D410E0094831460822FFF7BB
:10C7080057FB012809D030463146054A0823FFF770
:10C718009BFB2D1A002DEFD0F5E709B0F0BD00BF47
:10C7280094D30200013A30B5D2B2002453B2002BA0
:10C7380009DB1BB2013A51F8235050F823306B4003
:10C748001C43D2B2F2E7B4FA84F0400930BD00EBE2
:10C7580081010023884206D251F8042D43EA52038E
:10C768000B60D307F6E77047F8B5036813F00105C7
:10C7780006460F46144605D001463A462346FFF7BB
:10C7880033FB054630462146FFF7E1FF45B104F18A
:10C798008042013A56F8223043F0004346F82230EE
:10C7A800F8BD70B59DF910401D4623460646FFF7B3
:10C7B8001BFB30B9284631462246FFF7F9FA012813
:10C7C80007D0304631462A462346BDE87040FFF779
:10C7D8003BBB70BD70B59DF910401D46234606460B
:10C7E800FFF732FB38B1304631462A462346BDE8CA
:10C7F8007040FFF7F9BA70BD2DE9F043A3B0984631
:10C80800019112AB41460746104691460093FFF747
:10C8180082FEC0EB881086B2454C33B21C40002C17
:10C82800BEBF04F1FF3464F01F040134202593FBDC
:10C83800F5F5EDB26DB2A4B202A8294624B2FFF70D
:10C8480002FE28B202AB002C03EB800010DD0022B0
:10C858001346434510D259F8235005FA04F10A4308
:10C8680040F82320C4F1200225FA02F20133F0E750
:10C8780049464246FFF771FE0FFA88F502AB4FEAC8
:10C888004509012403EB8505330444D400221146ED
:10C8980053B24B4522DA0DF1880E0EEB840E0DF1E2
:10C8A800880C18B25EF888EC0CEB83035EF820E085
:10C8B80053F8803CC3EB0E035B1A734502D08CBF60
:10C8C80001210021C4F1010E0DF1880C0CEB8E0E34
:10C8D80001325EF888EC4EF82030D9E7621A5442EB
:10C8E80002A841465441FFF732FF22AA08F1FF335C
:10C8F80002EB830302EB8802284652F8801C53F8A7
:10C90800802C013E42EAC172414643F8802CB6B2FF
:10C91800FFF71DFFB8E722AB03EB8404384654F851
:10C92800881C4246FFF719FE23B0BDE8F08300BF1C
:10C938001F00008070B590B006469DF950401D4616
:10C9480068462346FFF7B0FA304669462A4623462A
:10C95800FFF752FF10B070BD30B51C4691B00546C8
:10C9680093F900306846FFF79FFAD4F8AC302846B0
:10C978006946984711B030BD30B5144691B00546A8
:10C9880092F900206846FFF718FCD4F8AC30284626
:10C998006946984711B030BD2DE9F04115468AB077
:10C9A8000446884602A800212022FFF7C7F92E78FE
:10C9B8000323204641462A462F1D76B20293FFF7ED
:10C9C800DBFF2046214602AA3B460096FFF702FFFE
:10C9D8002046214642462B46FFF7BEFF00962046DA
:10C9E800214605F184023B46FFF7DBFE0AB0BDE8AD
:10C9F800F0812DE9F04793F9006092B0044689462A
:10CA08001046314615469846FFF76DFD002840F060
:10CA1800978002A849464246FFF7AEFF43460AA858
:10CA2800214602AAFFF798FF02A801464246FFF7EF
:10CA3800A3FF4346484649462A46FFF78DFF08F1BB
:10CA48000407284629464246FFF796FF2046214616
:10CA58002A463B460096FFF7A4FE284629462A4662
:10CA68003B460096FFF79DFE284621462A463B4650
:10CA78000096FFF7AFFE204621462A464346FFF7B9
:10CA88006BFF2846214622463B460096FFF789FE63
:10CA980020463B46009621462A46FFF782FE236839
:10CAA800DB07204613D5334621463A46FFF79CF963
:10CAB800314682462046FFF74AFE06F18043013B95
:10CAC80054F8230040EACA7044F8230002E03146D3
:10CAD800FFF73DFE284621464246FFF74DFF284610
:10CAE80029460AAA3B460096FFF774FE28462946BF
:10CAF8000AAA3B460096FFF76DFE0AA801462A4699
:10CB08003B460096FFF766FE204621460AAA4346A2
:10CB1800FFF722FF02A802463B4621460096FFF790
:10CB280059FE204629463246FFF717FD2846494652
:10CB38003246FFF712FD484602A93246FFF70DFDBF
:10CB480012B0BDE8F0872DE9F0438BB08046129D06
:10CB580015F9046B009614461F4689462B4602A811
:10CB680011464246FFF736FE02A80146129AFFF721
:10CB780003FF4046414602AA129BFFF7EDFE2046FE
:10CB8800214602AA129BFFF7E7FE2B463846394694
:10CB98004A460096FFF71EFE02A83946129AFFF78A
:10CBA800EBFE02A8014642462B460096FFF712FE0E
:10CBB80002A8014622462B460096FFF70BFE2046A8
:10CBC800214642462B460096FFF704FE4846494652
:10CBD8002246129BFFF7C0FE2046414602AA2B467A
:10CBE8000096FFF7F7FD384639462246129BFFF7B5
:10CBF800B3FE384639464A462B460096FFF7EAFD0B
:10CC0800204602A93246FFF7A8FC0BB0BDE8F08326
:10CC1800F0B589B01C4607460E46154668461146CB
:10CC28001A46FFF7A9FE384639466A462346FFF7F3
:10CC380093FE684669462A462346FFF78DFE30462E
:10CC480031466A462346FFF787FE09B0F0BDF0B5C6
:10CC58000646A1B00F460846194615461C46FFF77A
:10CC680042FC20B130462146FFF7EDFB73E06846F1
:10CC780039462246FFF771FC08A829462246FFF7E5
:10CC88006CFC10A82146FFF7DEFB012318A82146FB
:10CC98001093FFF7D8FB684608A92246FFF788F8E3
:10CCA800002853D0009BDA0704D468462146FFF7D2
:10CCB8004EFD26E0089BDB0704D408A82146FFF7B1
:10CCC80046FD3DE000281EDD08AA23466946684661
:10CCD800FFF7BAF868462146FFF739FD10A818A9EA
:10CCE8002246FFF765F8002805DA10A801462A460B
:10CCF8002346FFF779F810A8014618AA2346FFF73C
:10CD0800A3F810A81DE008A86A4623460146FFF7C5
:10CD18009BF808A82146FFF71AFD18A810A9224673
:10CD2800FFF746F8002805DA18A801462A462346E0
:10CD3800FFF75AF818A8014610AA2346FFF784F807
:10CD480018A829462246FFF70FFDA4E7304610A988
:10CD58002246FFF702FC21B0F0BD000000487047F2
:10CD680090D302002DE9F04FEFB01E46789C059055
:10CD780023780493B4F9023092461F33202293FBA0
:10CD8800F2F3DBB206939DF9187094F9012007F1CC
:10CD9800FF3926AB002543F829506EAB03EB890316
:10CDA8004EA88B46314643F8805C43F8605CFEF73A
:10CDB800F9FF94F9012056A8B118FEF7F3FF9DF981
:10CDC80010604EA83146FFF78EFB8046002840F0E1
:10CDD8002F8156A83146FFF786FB0546002840F00C
:10CDE800258104F1240840464EA93A46FEF7E0FFA3
:10CDF800012840F01D81404656A93A46FEF7D8FF63
:10CE08000128089040F014813B461EA856A94246C6
:10CE1800FFF71DFF0DF1380C604659465246234670
:10CE28004CF82950CDF80CC0FFF719FBDDF80CC001
:10CE38000097604661461EAA4346CDF824C00DF50A
:10CE4800BC79FFF777FD4346009716A84EA91EAA9E
:10CE5800FFF770FD484632460599FFF77EFBB300A1
:10CE6800039309EB030B039A059B5846991832461E
:10CE7800FFF773FB04F144031946324636A80793BB
:10CE8800FFF76BFB04EB860132463EA8443104F100
:10CE9800040AFFF762FB494600961EA836AA5346C5
:10CEA800FFF798FC4A465B4636A83EA90094FFF770
:10CEB8004AFE1EA8014633465246FFF7C8FE1EAA80
:10CEC800484659462346FFF7A3FEDDF824C0079BD2
:10CED8000B936046059B0C933946CDF814C00A9510
:10CEE800CDF83490FFF717FB3946054616A8FFF72B
:10CEF80012FBA842B8BF284685B2DDF814C06F1EE1
:10CF08003FB260463946FFF7FDFA394610F100098D
:10CF180016A818BF4FF00109FFF7F4FA002814BF4C
:10CF28000223002343EA09090DF1280B32465BF876
:10CF3800297026A83946FFF710FB039B3246F918DB
:10CF48002EA8FFF70AFB31461EA8FFF77CFA023D20
:10CF5800089B1E93AEB237B2002F44DB23461EAAAD
:10CF6800D4F8A45026A82EA9A84739460EA8FFF73A
:10CF7800C9FA3946051C16A818BF0125FFF7C2FAD9
:10CF8800002814BF022300231D430AAB53F8257061
:10CF980037B39DF9105036A839462A46FFF7DDFA0F
:10CFA800039B3EA8F9182A46FFF7D7FA36A83EA9E8
:10CFB8001EAA2346FFF72CFE46A826A936AA5346E2
:10CFC8000095FFF707FC36A83EA926AA2EAB0094C9
:10CFD800FFF7B9FD1EA8014646AA2346FFF7BCFC89
:10CFE800013EB6B2B7E79DF910501EA80146524659
:10CFF8002B46FFF72CFE234626A82EA91EAAFFF7CC
:10D0080007FE9DF91840404626A92246FEF7D0FEA5
:10D01800012805D026A8014642462346FEF714FFFC
:10D0280026A84EA92A46FFF77DFB02E0404600E00D
:08D0380028466FB0BDE8F08F3F
:08D040000DB70200FDB602006D
:08D048009191020000000000BC
:08D0500015930200000000002E
:08D05800C1BA02000000000053
:10D060000000000000000000F5A502000010000014
:04D0700000000300B9
:10D07400111213140010000004000000010000004D
:10D08400358C0200898C0200598C0200FD8C020050
:10D09400958C0200418C0200458C0200498C0200F0
:10D0A400982F8A4291443771CFFBC0B5A5DBB5E90F
:10D0B4005BC25639F111F159A4823F92D55E1CAB83
:10D0C40098AA07D8015B8312BE853124C37D0C5511
:10D0D400745DBE72FEB1DE80A706DC9B74F19BC159
:10D0E400C1699BE48647BEEFC69DC10FCCA10C2449
:10D0F4006F2CE92DAA84744ADCA9B05CDA88F9762D
:10D1040052513E986DC631A8C82703B0C77F59BF96
:10D11400F30BE0C64791A7D55163CA0667292914C2
:10D12400850AB72738211B2EFC6D2C4D130D38535F
:10D1340054730A65BB0A6A762EC9C281852C729221
:10D14400A1E8BFA24B661AA8708B4BC2A3516CC74F
:10D1540019E892D1240699D685350EF470A06A1088
:10D1640016C1A419086C371E4C774827B5BCB034D7
:10D17400B30C1C394AAAD84E4FCA9C5BF36F2E6875
:10D18400EE828F746F63A5781478C8840802C78C04
:10D19400FAFFBE90EB6C50A4F7A3F9BEF27871C607
:10D1A400011101FF0100000000000000021702FE4F
:10D1B40094000000F8D10200031704FC04000000EE
:10D1C40098D20200000000000000000000000000EF
:10D1D4000101000001000000000000000205000041
:10D1E400210000000000000000000000000000001A
:10D1F40000000000011104FC040000000000000015
:10D20400021104FC0400000000000000032104FCDF
:10D214000410000000000000041101FF01000000E0
:10D2240000000000051102FE0400000000000000E0
:10D23400061104FC0400000000000000071104FCB7
:10D244000400000000000000081701FF2200000095
:10D25400D4D10200091001FF0100000070D20200C5
:10D2640000000000000000000000000000000000BA
:10D27400011704FCA0000000A4D10200021704FC62
:10D28400E4000000B0D20200000000000000000032
:10D294000000000001010000040000000000000084
:10D2A4000000000000000000000000000107000072
:10D2B400A0000000A4D1020002010000010000004F
:10D2C4000000000003050000410000000000000011
:10D2D400000000000000000000000000F61473DFEE
:10D2E400E60DDD0C428E1739121EA755F51CD57AB2
:10D2F4009D6EB319F66C745D37C7DD5ACEFA44FDE2
:10D304002BDAA6A4D7CE0157C4073021042B41CB76
:10D31400F8326C2AC5FA01051F2BE57905000000D7
:10D32400A8300020040500007C3300206C36002067
:10D334001BAF0200BFAE0200FFB3020071B40200D3
:10D3440091B4020009AE0200CDAD020097B3020011
:10D3540000000000FFFFFFFFFFFFFFFFFFFFFFFFD5
:10D36400FFFFFFFF00000000000000000000D601E6
:10D374000701000058D0020060D00200080000003D
:10D3840048D0020050D0020008000000082000012C
:10D39400FFFFFFFFFFFFFFFFFFFFFFFF0000000095
:10D3A400000000000000000001000000FFFFFFFF7C
:10D3B400512563FCC2CAB9F3849E17A7ADFAE6BC33
:10D3C400FFFFFFFFFFFFFFFF00000000FFFFFFFF65
:10D3D40096C298D84539A1F4A033EB2D817D03770B
:10D3E400F240A463E5E6BCF847422CE1F2D1176BA6
:10D3F400F551BF376840B6CBCE5E316B5733CE2B79
:10D40400169E0F7C4AEBE78E9B7F1AFEE242E34FA7
:10D414004B60D2273E3CCE3BF6B053CCB0061D65E4
:10D42400BC86987655BDEBB3E7933AAAD835C65A6D
:0CD43400FBC90200A1C902007DC5020076
:10D44000E0D20200400000000C2E0020400000004E
:10D45000010000004C2E002020000000742E00204F
:08D46000200000000090D00341
:020000020000FC
:020000041000EA
:041014000080020056
:0410180000E00200F2
:04000003200082193E
:00000001FF
